{
  "_format": "hh-sol-artifact-1",
  "contractName": "LAIZYLIONS",
  "sourceName": "contracts/ERC721AMinter/LaizyLions.sol",
  "abi": [
    {
      "inputs": [
        {
          "internalType": "string",
          "name": "name",
          "type": "string"
        },
        {
          "internalType": "string",
          "name": "symbol",
          "type": "string"
        },
        {
          "internalType": "string",
          "name": "hiddenMetadataURI_",
          "type": "string"
        },
        {
          "internalType": "address",
          "name": "developer",
          "type": "address"
        }
      ],
      "stateMutability": "nonpayable",
      "type": "constructor"
    },
    {
      "inputs": [],
      "name": "AdminAlreadyExists",
      "type": "error"
    },
    {
      "inputs": [],
      "name": "ApprovalCallerNotOwnerNorApproved",
      "type": "error"
    },
    {
      "inputs": [],
      "name": "ApprovalQueryForNonexistentToken",
      "type": "error"
    },
    {
      "inputs": [],
      "name": "ApproveToCaller",
      "type": "error"
    },
    {
      "inputs": [],
      "name": "BalanceQueryForZeroAddress",
      "type": "error"
    },
    {
      "inputs": [],
      "name": "InvalidQueryRange",
      "type": "error"
    },
    {
      "inputs": [],
      "name": "MintERC2309QuantityExceedsLimit",
      "type": "error"
    },
    {
      "inputs": [],
      "name": "MintToZeroAddress",
      "type": "error"
    },
    {
      "inputs": [],
      "name": "MintZeroQuantity",
      "type": "error"
    },
    {
      "inputs": [],
      "name": "NotAuthorised",
      "type": "error"
    },
    {
      "inputs": [],
      "name": "NotEnoughEtherSent",
      "type": "error"
    },
    {
      "inputs": [],
      "name": "NotTheTokenOwner",
      "type": "error"
    },
    {
      "inputs": [],
      "name": "OnlyOnePresaleMintAllowed",
      "type": "error"
    },
    {
      "inputs": [],
      "name": "OwnerQueryForNonexistentToken",
      "type": "error"
    },
    {
      "inputs": [],
      "name": "OwnershipNotInitializedForExtraData",
      "type": "error"
    },
    {
      "inputs": [],
      "name": "QueryForNonexistentToken",
      "type": "error"
    },
    {
      "inputs": [],
      "name": "SaleNotActive",
      "type": "error"
    },
    {
      "inputs": [],
      "name": "SupplyExceeded",
      "type": "error"
    },
    {
      "inputs": [],
      "name": "TooFewAdmins",
      "type": "error"
    },
    {
      "inputs": [],
      "name": "TransferCallerNotOwnerNorApproved",
      "type": "error"
    },
    {
      "inputs": [],
      "name": "TransferFromIncorrectOwner",
      "type": "error"
    },
    {
      "inputs": [],
      "name": "TransferToNonERC721ReceiverImplementer",
      "type": "error"
    },
    {
      "inputs": [],
      "name": "TransferToZeroAddress",
      "type": "error"
    },
    {
      "inputs": [],
      "name": "URIQueryForNonexistentToken",
      "type": "error"
    },
    {
      "anonymous": false,
      "inputs": [
        {
          "indexed": true,
          "internalType": "address",
          "name": "owner",
          "type": "address"
        },
        {
          "indexed": true,
          "internalType": "address",
          "name": "approved",
          "type": "address"
        },
        {
          "indexed": true,
          "internalType": "uint256",
          "name": "tokenId",
          "type": "uint256"
        }
      ],
      "name": "Approval",
      "type": "event"
    },
    {
      "anonymous": false,
      "inputs": [
        {
          "indexed": true,
          "internalType": "address",
          "name": "owner",
          "type": "address"
        },
        {
          "indexed": true,
          "internalType": "address",
          "name": "operator",
          "type": "address"
        },
        {
          "indexed": false,
          "internalType": "bool",
          "name": "approved",
          "type": "bool"
        }
      ],
      "name": "ApprovalForAll",
      "type": "event"
    },
    {
      "anonymous": false,
      "inputs": [
        {
          "indexed": true,
          "internalType": "uint256",
          "name": "fromTokenId",
          "type": "uint256"
        },
        {
          "indexed": false,
          "internalType": "uint256",
          "name": "toTokenId",
          "type": "uint256"
        },
        {
          "indexed": true,
          "internalType": "address",
          "name": "from",
          "type": "address"
        },
        {
          "indexed": true,
          "internalType": "address",
          "name": "to",
          "type": "address"
        }
      ],
      "name": "ConsecutiveTransfer",
      "type": "event"
    },
    {
      "anonymous": false,
      "inputs": [
        {
          "indexed": true,
          "internalType": "address",
          "name": "previousOwner",
          "type": "address"
        },
        {
          "indexed": true,
          "internalType": "address",
          "name": "newOwner",
          "type": "address"
        }
      ],
      "name": "OwnershipTransferred",
      "type": "event"
    },
    {
      "anonymous": false,
      "inputs": [
        {
          "indexed": false,
          "internalType": "address",
          "name": "account",
          "type": "address"
        }
      ],
      "name": "Paused",
      "type": "event"
    },
    {
      "anonymous": false,
      "inputs": [
        {
          "indexed": true,
          "internalType": "address",
          "name": "from",
          "type": "address"
        },
        {
          "indexed": true,
          "internalType": "address",
          "name": "to",
          "type": "address"
        },
        {
          "indexed": true,
          "internalType": "uint256",
          "name": "tokenId",
          "type": "uint256"
        }
      ],
      "name": "Transfer",
      "type": "event"
    },
    {
      "anonymous": false,
      "inputs": [
        {
          "indexed": false,
          "internalType": "address",
          "name": "account",
          "type": "address"
        }
      ],
      "name": "Unpaused",
      "type": "event"
    },
    {
      "inputs": [],
      "name": "MAX_SUPPLY",
      "outputs": [
        {
          "internalType": "uint256",
          "name": "",
          "type": "uint256"
        }
      ],
      "stateMutability": "view",
      "type": "function"
    },
    {
      "inputs": [
        {
          "internalType": "address",
          "name": "admin",
          "type": "address"
        }
      ],
      "name": "addAdmin",
      "outputs": [],
      "stateMutability": "nonpayable",
      "type": "function"
    },
    {
      "inputs": [
        {
          "internalType": "uint256[]",
          "name": "tokenIds",
          "type": "uint256[]"
        }
      ],
      "name": "adminBurn",
      "outputs": [],
      "stateMutability": "nonpayable",
      "type": "function"
    },
    {
      "inputs": [],
      "name": "adminCount",
      "outputs": [
        {
          "internalType": "uint256",
          "name": "",
          "type": "uint256"
        }
      ],
      "stateMutability": "view",
      "type": "function"
    },
    {
      "inputs": [
        {
          "internalType": "address",
          "name": "to",
          "type": "address"
        },
        {
          "internalType": "uint256",
          "name": "quantity",
          "type": "uint256"
        }
      ],
      "name": "adminMint",
      "outputs": [],
      "stateMutability": "payable",
      "type": "function"
    },
    {
      "inputs": [
        {
          "internalType": "address",
          "name": "newOwner",
          "type": "address"
        }
      ],
      "name": "adminTransferOwnership",
      "outputs": [],
      "stateMutability": "nonpayable",
      "type": "function"
    },
    {
      "inputs": [
        {
          "internalType": "uint256",
          "name": "",
          "type": "uint256"
        }
      ],
      "name": "admins",
      "outputs": [
        {
          "internalType": "address",
          "name": "",
          "type": "address"
        }
      ],
      "stateMutability": "view",
      "type": "function"
    },
    {
      "inputs": [
        {
          "internalType": "address",
          "name": "to",
          "type": "address"
        },
        {
          "internalType": "uint256",
          "name": "tokenId",
          "type": "uint256"
        }
      ],
      "name": "approve",
      "outputs": [],
      "stateMutability": "nonpayable",
      "type": "function"
    },
    {
      "inputs": [
        {
          "internalType": "address",
          "name": "owner",
          "type": "address"
        }
      ],
      "name": "balanceOf",
      "outputs": [
        {
          "internalType": "uint256",
          "name": "",
          "type": "uint256"
        }
      ],
      "stateMutability": "view",
      "type": "function"
    },
    {
      "inputs": [],
      "name": "baseURI",
      "outputs": [
        {
          "internalType": "string",
          "name": "",
          "type": "string"
        }
      ],
      "stateMutability": "view",
      "type": "function"
    },
    {
      "inputs": [
        {
          "internalType": "uint256",
          "name": "tokenId",
          "type": "uint256"
        }
      ],
      "name": "burn",
      "outputs": [],
      "stateMutability": "nonpayable",
      "type": "function"
    },
    {
      "inputs": [],
      "name": "contractURI",
      "outputs": [
        {
          "internalType": "string",
          "name": "",
          "type": "string"
        }
      ],
      "stateMutability": "view",
      "type": "function"
    },
    {
      "inputs": [
        {
          "internalType": "uint256",
          "name": "tokenId",
          "type": "uint256"
        }
      ],
      "name": "explicitOwnershipOf",
      "outputs": [
        {
          "components": [
            {
              "internalType": "address",
              "name": "addr",
              "type": "address"
            },
            {
              "internalType": "uint64",
              "name": "startTimestamp",
              "type": "uint64"
            },
            {
              "internalType": "bool",
              "name": "burned",
              "type": "bool"
            },
            {
              "internalType": "uint24",
              "name": "extraData",
              "type": "uint24"
            }
          ],
          "internalType": "struct IERC721A.TokenOwnership",
          "name": "",
          "type": "tuple"
        }
      ],
      "stateMutability": "view",
      "type": "function"
    },
    {
      "inputs": [
        {
          "internalType": "uint256[]",
          "name": "tokenIds",
          "type": "uint256[]"
        }
      ],
      "name": "explicitOwnershipsOf",
      "outputs": [
        {
          "components": [
            {
              "internalType": "address",
              "name": "addr",
              "type": "address"
            },
            {
              "internalType": "uint64",
              "name": "startTimestamp",
              "type": "uint64"
            },
            {
              "internalType": "bool",
              "name": "burned",
              "type": "bool"
            },
            {
              "internalType": "uint24",
              "name": "extraData",
              "type": "uint24"
            }
          ],
          "internalType": "struct IERC721A.TokenOwnership[]",
          "name": "",
          "type": "tuple[]"
        }
      ],
      "stateMutability": "view",
      "type": "function"
    },
    {
      "inputs": [
        {
          "internalType": "uint256",
          "name": "tokenId",
          "type": "uint256"
        }
      ],
      "name": "getApproved",
      "outputs": [
        {
          "internalType": "address",
          "name": "",
          "type": "address"
        }
      ],
      "stateMutability": "view",
      "type": "function"
    },
    {
      "inputs": [],
      "name": "getConfig",
      "outputs": [
        {
          "components": [
            {
              "internalType": "bool",
              "name": "publicSaleActive",
              "type": "bool"
            },
            {
              "internalType": "bool",
              "name": "revealed",
              "type": "bool"
            },
            {
              "internalType": "uint256",
              "name": "MAX_SUPPLY",
              "type": "uint256"
            },
            {
              "internalType": "uint256",
              "name": "presaleSupply",
              "type": "uint256"
            },
            {
              "internalType": "uint256",
              "name": "publicPrice",
              "type": "uint256"
            },
            {
              "internalType": "uint256",
              "name": "totalSupply",
              "type": "uint256"
            }
          ],
          "internalType": "struct LAIZYLIONS.Config",
          "name": "config",
          "type": "tuple"
        }
      ],
      "stateMutability": "view",
      "type": "function"
    },
    {
      "inputs": [],
      "name": "hiddenMetadataURI",
      "outputs": [
        {
          "internalType": "string",
          "name": "",
          "type": "string"
        }
      ],
      "stateMutability": "view",
      "type": "function"
    },
    {
      "inputs": [
        {
          "internalType": "address",
          "name": "account",
          "type": "address"
        }
      ],
      "name": "isAdmin",
      "outputs": [
        {
          "internalType": "bool",
          "name": "",
          "type": "bool"
        }
      ],
      "stateMutability": "view",
      "type": "function"
    },
    {
      "inputs": [
        {
          "internalType": "address",
          "name": "owner",
          "type": "address"
        },
        {
          "internalType": "address",
          "name": "operator",
          "type": "address"
        }
      ],
      "name": "isApprovedForAll",
      "outputs": [
        {
          "internalType": "bool",
          "name": "",
          "type": "bool"
        }
      ],
      "stateMutability": "view",
      "type": "function"
    },
    {
      "inputs": [
        {
          "internalType": "uint256",
          "name": "quantity",
          "type": "uint256"
        }
      ],
      "name": "mint",
      "outputs": [],
      "stateMutability": "payable",
      "type": "function"
    },
    {
      "inputs": [],
      "name": "name",
      "outputs": [
        {
          "internalType": "string",
          "name": "",
          "type": "string"
        }
      ],
      "stateMutability": "view",
      "type": "function"
    },
    {
      "inputs": [],
      "name": "owner",
      "outputs": [
        {
          "internalType": "address",
          "name": "",
          "type": "address"
        }
      ],
      "stateMutability": "view",
      "type": "function"
    },
    {
      "inputs": [
        {
          "internalType": "uint256",
          "name": "tokenId",
          "type": "uint256"
        }
      ],
      "name": "ownerOf",
      "outputs": [
        {
          "internalType": "address",
          "name": "",
          "type": "address"
        }
      ],
      "stateMutability": "view",
      "type": "function"
    },
    {
      "inputs": [],
      "name": "pause",
      "outputs": [],
      "stateMutability": "nonpayable",
      "type": "function"
    },
    {
      "inputs": [],
      "name": "paused",
      "outputs": [
        {
          "internalType": "bool",
          "name": "",
          "type": "bool"
        }
      ],
      "stateMutability": "view",
      "type": "function"
    },
    {
      "inputs": [],
      "name": "presaleActive",
      "outputs": [
        {
          "internalType": "bool",
          "name": "",
          "type": "bool"
        }
      ],
      "stateMutability": "view",
      "type": "function"
    },
    {
      "inputs": [],
      "name": "presaleMint",
      "outputs": [],
      "stateMutability": "payable",
      "type": "function"
    },
    {
      "inputs": [],
      "name": "presalePrice",
      "outputs": [
        {
          "internalType": "uint256",
          "name": "",
          "type": "uint256"
        }
      ],
      "stateMutability": "view",
      "type": "function"
    },
    {
      "inputs": [],
      "name": "presaleSupply",
      "outputs": [
        {
          "internalType": "uint256",
          "name": "",
          "type": "uint256"
        }
      ],
      "stateMutability": "view",
      "type": "function"
    },
    {
      "inputs": [],
      "name": "publicPrice",
      "outputs": [
        {
          "internalType": "uint256",
          "name": "",
          "type": "uint256"
        }
      ],
      "stateMutability": "view",
      "type": "function"
    },
    {
      "inputs": [],
      "name": "publicSaleActive",
      "outputs": [
        {
          "internalType": "bool",
          "name": "",
          "type": "bool"
        }
      ],
      "stateMutability": "view",
      "type": "function"
    },
    {
      "inputs": [
        {
          "internalType": "address",
          "name": "admin",
          "type": "address"
        }
      ],
      "name": "removeAdmin",
      "outputs": [],
      "stateMutability": "nonpayable",
      "type": "function"
    },
    {
      "inputs": [],
      "name": "renounceOwnership",
      "outputs": [],
      "stateMutability": "nonpayable",
      "type": "function"
    },
    {
      "inputs": [
        {
          "internalType": "uint256",
          "name": "tokenId",
          "type": "uint256"
        },
        {
          "internalType": "uint256",
          "name": "salePrice",
          "type": "uint256"
        }
      ],
      "name": "royaltyInfo",
      "outputs": [
        {
          "internalType": "address",
          "name": "",
          "type": "address"
        },
        {
          "internalType": "uint256",
          "name": "",
          "type": "uint256"
        }
      ],
      "stateMutability": "view",
      "type": "function"
    },
    {
      "inputs": [
        {
          "internalType": "address",
          "name": "from",
          "type": "address"
        },
        {
          "internalType": "address",
          "name": "to",
          "type": "address"
        },
        {
          "internalType": "uint256",
          "name": "tokenId",
          "type": "uint256"
        }
      ],
      "name": "safeTransferFrom",
      "outputs": [],
      "stateMutability": "nonpayable",
      "type": "function"
    },
    {
      "inputs": [
        {
          "internalType": "address",
          "name": "from",
          "type": "address"
        },
        {
          "internalType": "address",
          "name": "to",
          "type": "address"
        },
        {
          "internalType": "uint256",
          "name": "tokenId",
          "type": "uint256"
        },
        {
          "internalType": "bytes",
          "name": "_data",
          "type": "bytes"
        }
      ],
      "name": "safeTransferFrom",
      "outputs": [],
      "stateMutability": "nonpayable",
      "type": "function"
    },
    {
      "inputs": [
        {
          "internalType": "address",
          "name": "operator",
          "type": "address"
        },
        {
          "internalType": "bool",
          "name": "approved",
          "type": "bool"
        }
      ],
      "name": "setApprovalForAll",
      "outputs": [],
      "stateMutability": "nonpayable",
      "type": "function"
    },
    {
      "inputs": [
        {
          "internalType": "string",
          "name": "uri",
          "type": "string"
        }
      ],
      "name": "setBaseURI",
      "outputs": [],
      "stateMutability": "nonpayable",
      "type": "function"
    },
    {
      "inputs": [
        {
          "internalType": "string",
          "name": "uri",
          "type": "string"
        }
      ],
      "name": "setContractURI",
      "outputs": [],
      "stateMutability": "nonpayable",
      "type": "function"
    },
    {
      "inputs": [
        {
          "internalType": "address",
          "name": "recipient",
          "type": "address"
        },
        {
          "internalType": "uint96",
          "name": "numerator",
          "type": "uint96"
        }
      ],
      "name": "setDefaultRoyalty",
      "outputs": [],
      "stateMutability": "nonpayable",
      "type": "function"
    },
    {
      "inputs": [
        {
          "internalType": "address",
          "name": "address_",
          "type": "address"
        }
      ],
      "name": "setDeveloperAddress",
      "outputs": [],
      "stateMutability": "nonpayable",
      "type": "function"
    },
    {
      "inputs": [
        {
          "internalType": "string",
          "name": "uri",
          "type": "string"
        }
      ],
      "name": "setHiddenMetadataURI",
      "outputs": [],
      "stateMutability": "nonpayable",
      "type": "function"
    },
    {
      "inputs": [
        {
          "internalType": "uint256",
          "name": "price",
          "type": "uint256"
        }
      ],
      "name": "setPublicPrice",
      "outputs": [],
      "stateMutability": "nonpayable",
      "type": "function"
    },
    {
      "inputs": [
        {
          "internalType": "string",
          "name": "suffix",
          "type": "string"
        }
      ],
      "name": "setTokenURISuffix",
      "outputs": [],
      "stateMutability": "nonpayable",
      "type": "function"
    },
    {
      "inputs": [
        {
          "internalType": "bytes4",
          "name": "interfaceId",
          "type": "bytes4"
        }
      ],
      "name": "supportsInterface",
      "outputs": [
        {
          "internalType": "bool",
          "name": "",
          "type": "bool"
        }
      ],
      "stateMutability": "view",
      "type": "function"
    },
    {
      "inputs": [],
      "name": "symbol",
      "outputs": [
        {
          "internalType": "string",
          "name": "",
          "type": "string"
        }
      ],
      "stateMutability": "view",
      "type": "function"
    },
    {
      "inputs": [],
      "name": "togglePreSale",
      "outputs": [],
      "stateMutability": "nonpayable",
      "type": "function"
    },
    {
      "inputs": [],
      "name": "togglePublicSale",
      "outputs": [],
      "stateMutability": "nonpayable",
      "type": "function"
    },
    {
      "inputs": [
        {
          "internalType": "uint256",
          "name": "tokenId",
          "type": "uint256"
        }
      ],
      "name": "tokenURI",
      "outputs": [
        {
          "internalType": "string",
          "name": "",
          "type": "string"
        }
      ],
      "stateMutability": "view",
      "type": "function"
    },
    {
      "inputs": [],
      "name": "tokenURISuffix",
      "outputs": [
        {
          "internalType": "string",
          "name": "",
          "type": "string"
        }
      ],
      "stateMutability": "view",
      "type": "function"
    },
    {
      "inputs": [
        {
          "internalType": "address",
          "name": "owner",
          "type": "address"
        }
      ],
      "name": "tokensOfOwner",
      "outputs": [
        {
          "internalType": "uint256[]",
          "name": "",
          "type": "uint256[]"
        }
      ],
      "stateMutability": "view",
      "type": "function"
    },
    {
      "inputs": [
        {
          "internalType": "address",
          "name": "owner",
          "type": "address"
        },
        {
          "internalType": "uint256",
          "name": "start",
          "type": "uint256"
        },
        {
          "internalType": "uint256",
          "name": "stop",
          "type": "uint256"
        }
      ],
      "name": "tokensOfOwnerIn",
      "outputs": [
        {
          "internalType": "uint256[]",
          "name": "",
          "type": "uint256[]"
        }
      ],
      "stateMutability": "view",
      "type": "function"
    },
    {
      "inputs": [],
      "name": "totalSupply",
      "outputs": [
        {
          "internalType": "uint256",
          "name": "",
          "type": "uint256"
        }
      ],
      "stateMutability": "view",
      "type": "function"
    },
    {
      "inputs": [
        {
          "internalType": "address",
          "name": "from",
          "type": "address"
        },
        {
          "internalType": "address",
          "name": "to",
          "type": "address"
        },
        {
          "internalType": "uint256",
          "name": "tokenId",
          "type": "uint256"
        }
      ],
      "name": "transferFrom",
      "outputs": [],
      "stateMutability": "nonpayable",
      "type": "function"
    },
    {
      "inputs": [
        {
          "internalType": "address",
          "name": "newOwner",
          "type": "address"
        }
      ],
      "name": "transferOwnership",
      "outputs": [],
      "stateMutability": "nonpayable",
      "type": "function"
    },
    {
      "inputs": [],
      "name": "unpause",
      "outputs": [],
      "stateMutability": "nonpayable",
      "type": "function"
    },
    {
      "inputs": [],
      "name": "withdraw",
      "outputs": [],
      "stateMutability": "nonpayable",
      "type": "function"
    },
    {
      "stateMutability": "payable",
      "type": "receive"
    }
  ],
  "bytecode": "0x60c06040526005608081905264173539b7b760d91b60a09081526200002891601491906200026e565b5060006015556103e8601655666a94d74f4300006017553480156200004c57600080fd5b50604051620034d0380380620034d08339810160408190526200006f91620003e1565b835184908490620000889060029060208501906200026e565b5080516200009e9060039060208401906200026e565b5060008055505060408051808201909152338082526103e8602090920191909152607d60a31b17600855620000d33362000131565b600a805460ff60a01b19169055620000eb3362000183565b620000f68162000183565b600b80546001600160a01b0319166001600160a01b0383161790558151620001269060139060208501906200026e565b5050505050620004e7565b600a80546001600160a01b038381166001600160a01b0319831681179093556040519116919082907f8be0079c531659141344cd1fd0a4f28419497f9722a3daafe3b4186f6b6457e090600090a35050565b6200018e816200020e565b15620001ad576040516308a07bb960e41b815260040160405180910390fd5b600f80546001600160a01b039092166000818152600c60205260408120849055600184018355919091527f8d1108e10bcb7c27dddfc02ed9d693a074039d026cf4ea4240b40f7d581ac80290910180546001600160a01b0319169091179055565b600f546000906200022157506000919050565b6001600160a01b0382166000818152600c6020526040902054600f8054909190811062000252576200025262000494565b6000918252602090912001546001600160a01b03161492915050565b8280546200027c90620004aa565b90600052602060002090601f016020900481019282620002a05760008555620002eb565b82601f10620002bb57805160ff1916838001178555620002eb565b82800160010185558215620002eb579182015b82811115620002eb578251825591602001919060010190620002ce565b50620002f9929150620002fd565b5090565b5b80821115620002f95760008155600101620002fe565b634e487b7160e01b600052604160045260246000fd5b600082601f8301126200033c57600080fd5b81516001600160401b038082111562000359576200035962000314565b604051601f8301601f19908116603f0116810190828211818310171562000384576200038462000314565b81604052838152602092508683858801011115620003a157600080fd5b600091505b83821015620003c55785820183015181830184015290820190620003a6565b83821115620003d75760008385830101525b9695505050505050565b60008060008060808587031215620003f857600080fd5b84516001600160401b03808211156200041057600080fd5b6200041e888389016200032a565b955060208701519150808211156200043557600080fd5b62000443888389016200032a565b945060408701519150808211156200045a57600080fd5b5062000469878288016200032a565b606087015190935090506001600160a01b03811681146200048957600080fd5b939692955090935050565b634e487b7160e01b600052603260045260246000fd5b600181811c90821680620004bf57607f821691505b60208210811415620004e157634e487b7160e01b600052602260045260246000fd5b50919050565b612fd980620004f76000396000f3fe6080604052600436106103795760003560e01c8063715018a6116101d1578063ba9e12f711610102578063d66fe70e116100a0578063e58306f91161006f578063e58306f914610a18578063e8a3d48514610a2b578063e985e9c514610a40578063f2fde38b14610a8957600080fd5b8063d66fe70e146109ae578063dbbc853b146109ce578063dcc345f2146109e3578063e222c7f914610a0357600080fd5b8063c3f909d4116100dc578063c3f909d4146108f4578063c627525514610959578063c87b56dd14610979578063ca3cb5221461099957600080fd5b8063ba9e12f714610898578063bc8893b4146108ad578063c23dc68f146108c757600080fd5b806399a2557a1161016f578063a945bf8011610149578063a945bf801461082c578063a9852bfb14610842578063b3a196e914610862578063b88d4fde1461087857600080fd5b806399a2557a146107d9578063a0712d68146107f9578063a22cb4651461080c57600080fd5b80638da5cb5b116101ab5780638da5cb5b146107665780638e4bbb8f14610784578063938e3d7b146107a457806395d89b41146107c457600080fd5b8063715018a61461070f5780638456cb59146107245780638462151c1461073957600080fd5b80633ccfd60b116102ab57806359533d6c116102495780636352211e116102235780636352211e1461069a5780636c0360eb146106ba57806370480275146106cf57806370a08231146106ef57600080fd5b806359533d6c146106465780635bbb21771461064e5780635c975abb1461067b57600080fd5b806342966c681161028557806342966c68146105c7578063512507c6146105e757806353135ca01461060757806355f804b31461062657600080fd5b80633ccfd60b1461057d5780633f4ba83a1461059257806342842e0e146105a757600080fd5b80631785f53c1161031857806324d7806c116102f257806324d7806c146104f35780632a55205a146105135780632b7832b31461055257806332cb6b0c1461056757600080fd5b80631785f53c1461049a57806318160ddd146104ba57806323b872dd146104d357600080fd5b806306fdde031161035457806306fdde0314610400578063081812fc14610422578063095ea7b31461045a57806314bfd6d01461047a57600080fd5b80620e7fa81461038557806301ffc9a7146103ae57806304634d8d146103de57600080fd5b3661038057005b600080fd5b34801561039157600080fd5b5061039b60155481565b6040519081526020015b60405180910390f35b3480156103ba57600080fd5b506103ce6103c93660046127c1565b610aa9565b60405190151581526020016103a5565b3480156103ea57600080fd5b506103fe6103f93660046127fa565b610ac9565b005b34801561040c57600080fd5b50610415610b0e565b6040516103a59190612895565b34801561042e57600080fd5b5061044261043d3660046128a8565b610ba0565b6040516001600160a01b0390911681526020016103a5565b34801561046657600080fd5b506103fe6104753660046128c1565b610be4565b34801561048657600080fd5b506104426104953660046128a8565b610c84565b3480156104a657600080fd5b506103fe6104b53660046128eb565b610cae565b3480156104c657600080fd5b506001546000540361039b565b3480156104df57600080fd5b506103fe6104ee366004612906565b610e67565b3480156104ff57600080fd5b506103ce61050e3660046128eb565b610ff0565b34801561051f57600080fd5b5061053361052e366004612942565b610ffb565b604080516001600160a01b0390931683526020830191909152016103a5565b34801561055e57600080fd5b50600f5461039b565b34801561057357600080fd5b5061039b61271081565b34801561058957600080fd5b506103fe6110a7565b34801561059e57600080fd5b506103fe611195565b3480156105b357600080fd5b506103fe6105c2366004612906565b6111c5565b3480156105d357600080fd5b506103fe6105e23660046128a8565b6111e5565b3480156105f357600080fd5b506103fe610602366004612a01565b6111f3565b34801561061357600080fd5b506010546103ce90610100900460ff1681565b34801561063257600080fd5b506103fe610641366004612a01565b61122c565b6103fe611265565b34801561065a57600080fd5b5061066e610669366004612a49565b611304565b6040516103a59190612af9565b34801561068757600080fd5b50600a54600160a01b900460ff166103ce565b3480156106a657600080fd5b506104426106b53660046128a8565b6113cf565b3480156106c657600080fd5b506104156113da565b3480156106db57600080fd5b506103fe6106ea3660046128eb565b611468565b3480156106fb57600080fd5b5061039b61070a3660046128eb565b611497565b34801561071b57600080fd5b506103fe6114e5565b34801561073057600080fd5b506103fe6114f7565b34801561074557600080fd5b506107596107543660046128eb565b611525565b6040516103a59190612b3b565b34801561077257600080fd5b50600a546001600160a01b0316610442565b34801561079057600080fd5b506103fe61079f3660046128eb565b611634565b3480156107b057600080fd5b506103fe6107bf366004612a01565b611663565b3480156107d057600080fd5b5061041561169c565b3480156107e557600080fd5b506107596107f4366004612b73565b6116ab565b6103fe6108073660046128a8565b611828565b34801561081857600080fd5b506103fe610827366004612ba6565b6118b7565b34801561083857600080fd5b5061039b60175481565b34801561084e57600080fd5b506103fe61085d366004612a01565b61194d565b34801561086e57600080fd5b5061039b60165481565b34801561088457600080fd5b506103fe610893366004612bd7565b611986565b3480156108a457600080fd5b506104156119d0565b3480156108b957600080fd5b506010546103ce9060ff1681565b3480156108d357600080fd5b506108e76108e23660046128a8565b6119dd565b6040516103a59190612c52565b34801561090057600080fd5b50610909611a55565b6040516103a59190600060c08201905082511515825260208301511515602083015260408301516040830152606083015160608301526080830151608083015260a083015160a083015292915050565b34801561096557600080fd5b506103fe6109743660046128a8565b611af2565b34801561098557600080fd5b506104156109943660046128a8565b611b1d565b3480156109a557600080fd5b506103fe611c21565b3480156109ba57600080fd5b506103fe6109c9366004612c60565b611c46565b3480156109da57600080fd5b50610415611cae565b3480156109ef57600080fd5b506103fe6109fe3660046128eb565b611cbb565b348015610a0f57600080fd5b506103fe611d0a565b6103fe610a263660046128c1565b611d26565b348015610a3757600080fd5b50610415611d8b565b348015610a4c57600080fd5b506103ce610a5b366004612d05565b6001600160a01b03918216600090815260076020908152604080832093909416825291909152205460ff1690565b348015610a9557600080fd5b506103fe610aa43660046128eb565b611d98565b6000610ab482611e0a565b80610ac35750610ac382611e58565b92915050565b610ad1611e8d565b604080518082019091526001600160a01b0383168082526001600160601b0383166020909201829052600160a01b909102176008555050565b5050565b606060028054610b1d90612d38565b80601f0160208091040260200160405190810160405280929190818152602001828054610b4990612d38565b8015610b965780601f10610b6b57610100808354040283529160200191610b96565b820191906000526020600020905b815481529060010190602001808311610b7957829003601f168201915b5050505050905090565b6000610bab82611ee7565b610bc8576040516333d1c03960e21b815260040160405180910390fd5b506000908152600660205260409020546001600160a01b031690565b6000610bef826113cf565b9050336001600160a01b03821614610c2857610c0b8133610a5b565b610c28576040516367d9dca160e11b815260040160405180910390fd5b60008281526006602052604080822080546001600160a01b0319166001600160a01b0387811691821790925591518593918516917f8c5be1e5ebec7d5bd14f71427d1e84f3dd0314c0f7b2291e5b200ac8c7c3b92591a4505050565b600f8181548110610c9457600080fd5b6000918252602090912001546001600160a01b0316905081565b610cb733611f0e565b610cd457604051631648fd0160e01b815260040160405180910390fd5b610cdd81610ff0565b610cfa57604051631648fd0160e01b815260040160405180910390fd5b600f5460031115610d1e5760405163a828df7560e01b815260040160405180910390fd5b6001600160a01b0381166000908152600c6020526040902054600f54610d4690600190612d89565b811415610d8557600f805480610d5e57610d5e612da0565b600082815260209020810160001990810180546001600160a01b0319169055019055610e4c565b600f805460009190610d9990600190612d89565b81548110610da957610da9612db6565b60009182526020808320909101546001600160a01b0316808352600c9091526040909120839055600f8054919250829184908110610de957610de9612db6565b9060005260206000200160006101000a8154816001600160a01b0302191690836001600160a01b03160217905550600f805480610e2857610e28612da0565b600082815260209020810160001990810180546001600160a01b0319169055019055505b506001600160a01b03166000908152600c6020526040812055565b6000610e7282611f6a565b9050836001600160a01b0316816001600160a01b031614610ea55760405162a1148160e81b815260040160405180910390fd5b60008281526006602052604090208054610ed18187335b6001600160a01b039081169116811491141790565b610efc57610edf8633610a5b565b610efc57604051632ce44b5f60e11b815260040160405180910390fd5b6001600160a01b038516610f2357604051633a954ecd60e21b815260040160405180910390fd5b8015610f2e57600082555b6001600160a01b038681166000908152600560205260408082208054600019019055918716808252919020805460010190554260a01b17600160e11b17600085815260046020526040902055600160e11b8316610fb95760018401600081815260046020526040902054610fb7576000548114610fb75760008181526004602052604090208490555b505b83856001600160a01b0316876001600160a01b0316600080516020612f8483398151915260405160405180910390a4505050505050565b6000610ac382611f0e565b60008281526009602090815260408083208151808301909252546001600160a01b038116808352600160a01b9091046001600160601b03169282019290925282916110705750604080518082019091526008546001600160a01b0381168252600160a01b90046001600160601b031660208201525b60208101516000906127109061108f906001600160601b031687612dcc565b6110999190612e01565b915196919550909350505050565b6110af611e8d565b600b546000906001600160a01b031660646110cb476014612dcc565b6110d59190612e01565b604051600081818185875af1925050503d8060008114611111576040519150601f19603f3d011682016040523d82523d6000602084013e611116565b606091505b505090508061112457600080fd5b6000611138600a546001600160a01b031690565b6001600160a01b03164760405160006040518083038185875af1925050503d8060008114611182576040519150601f19603f3d011682016040523d82523d6000602084013e611187565b606091505b5050905080610b0a57600080fd5b61119e33611f0e565b6111bb57604051631648fd0160e01b815260040160405180910390fd5b6111c3611fcb565b565b6111e083838360405180602001604052806000815250611986565b505050565b6111f0816001612020565b50565b6111fc33611f0e565b61121957604051631648fd0160e01b815260040160405180910390fd5b8051610b0a906013906020840190612712565b61123533611f0e565b61125257604051631648fd0160e01b815260040160405180910390fd5b8051610b0a906011906020840190612712565b60105460ff166112885760405163b7b2409760e01b815260040160405180910390fd5b601654600054106112ac57604051637d3d824960e01b815260040160405180910390fd5b336000908152600e602052604090205460ff16156112dd576040516345df8efb60e01b815260040160405180910390fd5b336000818152600e60205260409020805460ff191660019081179091556111c39190612151565b6060816000816001600160401b0381111561132157611321612964565b60405190808252806020026020018201604052801561137357816020015b60408051608081018252600080825260208083018290529282018190526060820152825260001990920191018161133f5790505b50905060005b8281146113c6576113a186868381811061139557611395612db6565b905060200201356119dd565b8282815181106113b3576113b3612db6565b6020908102919091010152600101611379565b50949350505050565b6000610ac382611f6a565b601180546113e790612d38565b80601f016020809104026020016040519081016040528092919081815260200182805461141390612d38565b80156114605780601f1061143557610100808354040283529160200191611460565b820191906000526020600020905b81548152906001019060200180831161144357829003601f168201915b505050505081565b61147133611f0e565b61148e57604051631648fd0160e01b815260040160405180910390fd5b6111f08161216b565b60006001600160a01b0382166114c0576040516323d3ad8160e21b815260040160405180910390fd5b506001600160a01b03166000908152600560205260409020546001600160401b031690565b6114ed611e8d565b6111c360006121f3565b61150033611f0e565b61151d57604051631648fd0160e01b815260040160405180910390fd5b6111c3612245565b6060600080600061153585611497565b90506000816001600160401b0381111561155157611551612964565b60405190808252806020026020018201604052801561157a578160200160208202803683370190505b5090506115a760408051608081018252600080825260208201819052918101829052606081019190915290565b60005b838614611628576115ba81612288565b91508160400151156115cb57611620565b81516001600160a01b0316156115e057815194505b876001600160a01b0316856001600160a01b03161415611620578083878060010198508151811061161357611613612db6565b6020026020010181815250505b6001016115aa565b50909695505050505050565b61163d33611f0e565b61165a57604051631648fd0160e01b815260040160405180910390fd5b6111f0816121f3565b61166c33611f0e565b61168957604051631648fd0160e01b815260040160405180910390fd5b8051610b0a906012906020840190612712565b606060038054610b1d90612d38565b60608183106116cd57604051631960ccad60e11b815260040160405180910390fd5b6000806116d960005490565b9050808411156116e7578093505b60006116f287611497565b905084861015611711578585038181101561170b578091505b50611715565b5060005b6000816001600160401b0381111561172f5761172f612964565b604051908082528060200260200182016040528015611758578160200160208202803683370190505b5090508161176b57935061182192505050565b6000611776886119dd565b905060008160400151611787575080515b885b8881141580156117995750848714155b15611815576117a781612288565b92508260400151156117b85761180d565b82516001600160a01b0316156117cd57825191505b8a6001600160a01b0316826001600160a01b0316141561180d578084888060010199508151811061180057611800612db6565b6020026020010181815250505b600101611789565b50505092835250909150505b9392505050565b60105460ff1661184b5760405163b7b2409760e01b815260040160405180910390fd5b61271061185760005490565b6118619083612e15565b111561188057604051637d3d824960e01b815260040160405180910390fd5b60175461188d9082612dcc565b3410156118ad57604051637ea94e2960e01b815260040160405180910390fd5b6111f03382612151565b6001600160a01b0382163314156118e15760405163b06307db60e01b815260040160405180910390fd5b3360008181526007602090815260408083206001600160a01b03871680855290835292819020805460ff191686151590811790915590519081529192917f17307eab39ab6107e8899845ad3d59bd9653f200f220920489ca2b5937696c31910160405180910390a35050565b61195633611f0e565b61197357604051631648fd0160e01b815260040160405180910390fd5b8051610b0a906014906020840190612712565b611991848484610e67565b6001600160a01b0383163b156119ca576119ad848484846122c4565b6119ca576040516368d2bf6b60e11b815260040160405180910390fd5b50505050565b601380546113e790612d38565b6040805160808082018352600080835260208084018290528385018290526060808501839052855193840186528284529083018290529382018190529281018390529091506000548310611a315792915050565b611a3a83612288565b9050806040015115611a4c5792915050565b611821836123bc565b611a926040518060c00160405280600015158152602001600015158152602001600081526020016000815260200160008152602001600081525090565b6040805160c0810190915260105460ff1615158152601180546020830191600091611abc90612d38565b90501115158152602001612710815260200160165481526020016017548152602001611aeb6001546000540390565b9052919050565b611afb33611f0e565b611b1857604051631648fd0160e01b815260040160405180910390fd5b601755565b6060611b2882611ee7565b611b4557604051636c01c8cf60e11b815260040160405180910390fd5b60118054611b5290612d38565b15159050611bec5760138054611b6790612d38565b80601f0160208091040260200160405190810160405280929190818152602001828054611b9390612d38565b8015611be05780601f10611bb557610100808354040283529160200191611be0565b820191906000526020600020905b815481529060010190602001808311611bc357829003601f168201915b50505050509050919050565b6011611bf7836123f1565b6014604051602001611c0b93929190612ec7565b6040516020818303038152906040529050919050565b611c29611e8d565b6010805461ff001981166101009182900460ff1615909102179055565b611c4f33611f0e565b611c6c57604051631648fd0160e01b815260040160405180910390fd5b60005b8151811015610b0a57611c9c828281518110611c8d57611c8d612db6565b60200260200101516000612020565b80611ca681612efa565b915050611c6f565b601480546113e790612d38565b600b546001600160a01b0316338114611ce757604051631648fd0160e01b815260040160405180910390fd5b50600b80546001600160a01b0319166001600160a01b0392909216919091179055565b611d12611e8d565b6010805460ff19811660ff90911615179055565b611d2f33611f0e565b611d4c57604051631648fd0160e01b815260040160405180910390fd5b612710611d5860005490565b611d629083612e15565b1115611d8157604051637d3d824960e01b815260040160405180910390fd5b610b0a8282612151565b601280546113e790612d38565b611da0611e8d565b6001600160a01b03811661165a5760405162461bcd60e51b815260206004820152602660248201527f4f776e61626c653a206e6577206f776e657220697320746865207a65726f206160448201526564647265737360d01b60648201526084015b60405180910390fd5b60006301ffc9a760e01b6001600160e01b031983161480611e3b57506380ac58cd60e01b6001600160e01b03198316145b80610ac35750506001600160e01b031916635b5e139f60e01b1490565b60006001600160e01b0319821663152a902d60e11b1480610ac357506301ffc9a760e01b6001600160e01b0319831614610ac3565b600a546001600160a01b031633146111c35760405162461bcd60e51b815260206004820181905260248201527f4f776e61626c653a2063616c6c6572206973206e6f7420746865206f776e65726044820152606401611e01565b6000805482108015610ac3575050600090815260046020526040902054600160e01b161590565b600f54600090611f2057506000919050565b6001600160a01b0382166000818152600c6020526040902054600f80549091908110611f4e57611f4e612db6565b6000918252602090912001546001600160a01b03161492915050565b600081600054811015611fb257600081815260046020526040902054600160e01b8116611fb0575b80611821575060001901600081815260046020526040902054611f92565b505b604051636f96cda160e11b815260040160405180910390fd5b611fd36124ee565b600a805460ff60a01b191690557f5db9ee0a495bf2e6ff9c91a7834c1ba4fdd244a5e8aa4e537bd38aeae4b073aa335b6040516001600160a01b03909116815260200160405180910390a1565b600061202b83611f6a565b90508060008061204986600090815260066020526040902080549091565b9150915084156120895761205e818433610ebc565b6120895761206c8333610a5b565b61208957604051632ce44b5f60e11b815260040160405180910390fd5b801561209457600082555b6001600160a01b038316600081815260056020526040902080546fffffffffffffffffffffffffffffffff0190554260a01b17600360e01b17600087815260046020526040902055600160e11b841661211b57600186016000818152600460205260409020546121195760005481146121195760008181526004602052604090208590555b505b60405186906000906001600160a01b03861690600080516020612f84833981519152908390a45050600180548101905550505050565b610b0a82826040518060200160405280600081525061253e565b61217481611f0e565b15612192576040516308a07bb960e41b815260040160405180910390fd5b600f80546001600160a01b039092166000818152600c60205260408120849055600184018355919091527f8d1108e10bcb7c27dddfc02ed9d693a074039d026cf4ea4240b40f7d581ac80290910180546001600160a01b0319169091179055565b600a80546001600160a01b038381166001600160a01b0319831681179093556040519116919082907f8be0079c531659141344cd1fd0a4f28419497f9722a3daafe3b4186f6b6457e090600090a35050565b61224d6125ab565b600a805460ff60a01b1916600160a01b1790557f62e78cea01bee320cd4e420270b5ea74000d11b0c9f74754ebdbfc544b05a2586120033390565b604080516080810182526000808252602082018190529181018290526060810191909152600082815260046020526040902054610ac3906125f8565b604051630a85bd0160e11b81526000906001600160a01b0385169063150b7a02906122f9903390899088908890600401612f15565b602060405180830381600087803b15801561231357600080fd5b505af1925050508015612343575060408051601f3d908101601f1916820190925261234091810190612f52565b60015b61239e573d808015612371576040519150601f19603f3d011682016040523d82523d6000602084013e612376565b606091505b508051612396576040516368d2bf6b60e11b815260040160405180910390fd5b805181602001fd5b6001600160e01b031916630a85bd0160e11b1490505b949350505050565b604080516080810182526000808252602082018190529181018290526060810191909152610ac36123ec83611f6a565b6125f8565b6060816124155750506040805180820190915260018152600360fc1b602082015290565b8160005b811561243f578061242981612efa565b91506124389050600a83612e01565b9150612419565b6000816001600160401b0381111561245957612459612964565b6040519080825280601f01601f191660200182016040528015612483576020820181803683370190505b5090505b84156123b457612498600183612d89565b91506124a5600a86612f6f565b6124b0906030612e15565b60f81b8183815181106124c5576124c5612db6565b60200101906001600160f81b031916908160001a9053506124e7600a86612e01565b9450612487565b600a54600160a01b900460ff166111c35760405162461bcd60e51b815260206004820152601460248201527314185d5cd8589b194e881b9bdd081c185d5cd95960621b6044820152606401611e01565b612548838361263f565b6001600160a01b0383163b156111e0576000548281035b61257260008683806001019450866122c4565b61258f576040516368d2bf6b60e11b815260040160405180910390fd5b81811061255f5781600054146125a457600080fd5b5050505050565b600a54600160a01b900460ff16156111c35760405162461bcd60e51b815260206004820152601060248201526f14185d5cd8589b194e881c185d5cd95960821b6044820152606401611e01565b604080516080810182526001600160a01b038316815260a083901c6001600160401b03166020820152600160e01b831615159181019190915260e89190911c606082015290565b600054816126605760405163b562e8dd60e01b815260040160405180910390fd5b6001600160a01b03831660008181526005602090815260408083208054680100000000000000018802019055848352600490915281206001851460e11b4260a01b17831790558284019083908390600080516020612f848339815191528180a4600183015b8181146126eb5780836000600080516020612f84833981519152600080a46001016126c5565b508161270957604051622e076360e81b815260040160405180910390fd5b60005550505050565b82805461271e90612d38565b90600052602060002090601f0160209004810192826127405760008555612786565b82601f1061275957805160ff1916838001178555612786565b82800160010185558215612786579182015b8281111561278657825182559160200191906001019061276b565b50612792929150612796565b5090565b5b808211156127925760008155600101612797565b6001600160e01b0319811681146111f057600080fd5b6000602082840312156127d357600080fd5b8135611821816127ab565b80356001600160a01b03811681146127f557600080fd5b919050565b6000806040838503121561280d57600080fd5b612816836127de565b915060208301356001600160601b038116811461283257600080fd5b809150509250929050565b60005b83811015612858578181015183820152602001612840565b838111156119ca5750506000910152565b6000815180845261288181602086016020860161283d565b601f01601f19169290920160200192915050565b6020815260006118216020830184612869565b6000602082840312156128ba57600080fd5b5035919050565b600080604083850312156128d457600080fd5b6128dd836127de565b946020939093013593505050565b6000602082840312156128fd57600080fd5b611821826127de565b60008060006060848603121561291b57600080fd5b612924846127de565b9250612932602085016127de565b9150604084013590509250925092565b6000806040838503121561295557600080fd5b50508035926020909101359150565b634e487b7160e01b600052604160045260246000fd5b604051601f8201601f191681016001600160401b03811182821017156129a2576129a2612964565b604052919050565b60006001600160401b038311156129c3576129c3612964565b6129d6601f8401601f191660200161297a565b90508281528383830111156129ea57600080fd5b828260208301376000602084830101529392505050565b600060208284031215612a1357600080fd5b81356001600160401b03811115612a2957600080fd5b8201601f81018413612a3a57600080fd5b6123b4848235602084016129aa565b60008060208385031215612a5c57600080fd5b82356001600160401b0380821115612a7357600080fd5b818501915085601f830112612a8757600080fd5b813581811115612a9657600080fd5b8660208260051b8501011115612aab57600080fd5b60209290920196919550909350505050565b80516001600160a01b031682526020808201516001600160401b03169083015260408082015115159083015260609081015162ffffff16910152565b6020808252825182820181905260009190848201906040850190845b8181101561162857612b28838551612abd565b9284019260809290920191600101612b15565b6020808252825182820181905260009190848201906040850190845b8181101561162857835183529284019291840191600101612b57565b600080600060608486031215612b8857600080fd5b612b91846127de565b95602085013595506040909401359392505050565b60008060408385031215612bb957600080fd5b612bc2836127de565b91506020830135801515811461283257600080fd5b60008060008060808587031215612bed57600080fd5b612bf6856127de565b9350612c04602086016127de565b92506040850135915060608501356001600160401b03811115612c2657600080fd5b8501601f81018713612c3757600080fd5b612c46878235602084016129aa565b91505092959194509250565b60808101610ac38284612abd565b60006020808385031215612c7357600080fd5b82356001600160401b0380821115612c8a57600080fd5b818501915085601f830112612c9e57600080fd5b813581811115612cb057612cb0612964565b8060051b9150612cc184830161297a565b8181529183018401918481019088841115612cdb57600080fd5b938501935b83851015612cf957843582529385019390850190612ce0565b98975050505050505050565b60008060408385031215612d1857600080fd5b612d21836127de565b9150612d2f602084016127de565b90509250929050565b600181811c90821680612d4c57607f821691505b60208210811415612d6d57634e487b7160e01b600052602260045260246000fd5b50919050565b634e487b7160e01b600052601160045260246000fd5b600082821015612d9b57612d9b612d73565b500390565b634e487b7160e01b600052603160045260246000fd5b634e487b7160e01b600052603260045260246000fd5b6000816000190483118215151615612de657612de6612d73565b500290565b634e487b7160e01b600052601260045260246000fd5b600082612e1057612e10612deb565b500490565b60008219821115612e2857612e28612d73565b500190565b8054600090600181811c9080831680612e4757607f831692505b6020808410821415612e6957634e487b7160e01b600052602260045260246000fd5b818015612e7d5760018114612e8e57612ebb565b60ff19861689528489019650612ebb565b60008881526020902060005b86811015612eb35781548b820152908501908301612e9a565b505084890196505b50505050505092915050565b6000612ed38286612e2d565b8451612ee381836020890161283d565b612eef81830186612e2d565b979650505050505050565b6000600019821415612f0e57612f0e612d73565b5060010190565b6001600160a01b0385811682528416602082015260408101839052608060608201819052600090612f4890830184612869565b9695505050505050565b600060208284031215612f6457600080fd5b8151611821816127ab565b600082612f7e57612f7e612deb565b50069056feddf252ad1be2c89b69c2b068fc378daa952ba7f163c4a11628f55a4df523b3efa26469706673582212205268e929ec7f647d073eaf03491e23e83ac883e4548c4974208757ebc92fd36364736f6c63430008090033",
  "linkReferences": {},
  "deployedLinkReferences": {}
}